:10000000D60804000000000000000000000000000E
:1000100000000000000000000000000000000000E0
:1000200000000000000000000000000000000000D0
:1000300000000000000000000000000000000000C0
:1000400000000000000000000000000000000000B0
:10005000D40A0000000000000000000000000000C2
:100060000000000000000000000000000000000090
:1000700000000000000000008C0A000000000000EA
:100080000000000000000000000000000000000070
:100090000000000000000000000000000000000060
:1000A00092090000000000000000000000000000B5
:1000B0000000000000000000000000000000000040
:1000C0000000000000000000000000000000000030
:1000D0000000000000000000000000000000000020
:1000E0000000000000000000000000000000000010
:1011AC006FA12100F0FF270020A0B7001020200025
:1011BC0032A0B700400020004420B70007FF070012
:1011CC0041A121000020EF008048780021A12100DE
:1011DC000020EF008048780031A121000020EF00B2
:1011EC0080487800A1A021000020EF008048780002
:1011FC00B1A021000020EF008048780091A02100D0
:10120C000020EF0080487800119F21000020EF00A3
:10121C008048780081A021000020EF0080487800F1
:10122C00C1A021000020EF008048780001A121001E
:10123C000020EF008048780011A121000020EF0071
:10124C0080487800F1A021000020EF008048780051
:10125C00D1A021000020EF0080487800E1A02100FF
:10126C000020EF0080487800C10021000020EF0032
:10127C00804878000020EF00708088000020EF008C
:10128C00508088000020EF00308088000020EF00A4
:10129C00408088000020EF000220EF008080880052
:1012AC00918088000020EF00C08088000020EF00B3
:1012BC00D0808800610121000020EF008048780078
:1012CC00D10021000020EF00804878000020EF00C2
:1012DC00A0808800210021000020EF0080487800C9
:1012EC00310021000020EF0080487800110021001F
:1012FC000020EF0080487800010021000020EF0062
:10130C0080487800048EA900158EA8004822EF00B2
:08131C00FFFF3700FFFF37005F
:100DE8008A1F78008B1F78008C1F78008D1F780071
:100DF800213A8000F08F2F000080600044A7B700E0
:100E08004074200090407800F0C3B30080C06000B8
:100E1800407420000148780050C0B300804078003A
:100E28004074200090C06800FFC06000407420003B
:100E380090C06800407420000148780060092000D4
:100E4800800078006074200090806800F01F200007
:100E5800808060006074200090806800313A8800CB
:100E68000E2EEF001E2EEF00006EA900008EA900C6
:100E7800118EA900114EA800116EA80011AEA8008D
:100E8800C3E8A80020C2B30080407800406C20006E
:100E980090C06800F0C7B30080C06000406C2000BC
:100EA80090C06800406C20000148780000102000C5
:100EB80080007800006820009080680000F023001F
:100EC80080806000006820009080680001348800FD
:100ED8000A5822000B00200085FE07002168A9009F
:100EE8000168A900000024008000780040842000E8
:100EF8009080680000002700808060004084200007
:100F080090806800214288002022200090407800CC
:100F1800F0C3B30080C060002022200001487800A0
:100F2800F0C2B30080407800606C200090C0680078
:100F3800F0C7B30080C06000606C200090C06800FB
:100F4800606C20000148780030C0B3008040780011
:100F58002068200090C06800F0C3B30080C0600023
:100F68002068200090C068002068200001487800B0
:100F78001D0020002C0020000A482800EB0120005A
:100F880010002000801F780027FD07002F00B10007
:100F980023C8A90003C8A9000040200080007800E9
:100FA800E08420009080680000702000808060004D
:100FB800E08420009080680071428800202320008F
:100FC80090407800F0C3B30080C060002023200068
:100FD8000148780041E2A8003D002000CC01200033
:100FE8001620EF001420EF000020EF00801F78008B
:100FF80000042000801F780000202000801F780057
:1010080000082000801F78001BFE07008F00B10039
:101018002148A8000148A90000302000800078007D
:10102800408420009080680000702000808060006C
:1010380040842000908068002142880000E022005F
:10104800A0A6B7002288A9000288A90010C0B30092
:1010580080407800A084200090C06800E7C060004D
:10106800A084200090C06800A08420000148780077
:1010780098012000E7A026000E20ED00FEFF3A00B0
:101088001020ED00FCFF3A0000000000CF067800B9
:101098004F067800CF0578004F057800000006005D
:0010A80048
:1008F8000800FA00E046200030D08800F0FF2F0002
:1009080010D08800F0FF2F00F0CF8800F0FF2F00F4
:1009180000D088002022EF000000280022A2B700A3
:100928002062A900B4FE07000001BE00803E20003E
:10093800010020006F0007000001BE00B1FE0700A3
:100948004100DE006400400080007800600047003D
:100958000A88BE008100E900030035001018D000A5
:100968001090D200FBFF3700829FBE008A9FBE0016
:100978000200BE000E0190009E0190000002EB00F4
:10098800650007004F05BE004F01BE002007980014
:10099800310798008A9FBE000200BE000E01900039
:1009A8009E0190000002EB0083FF07004F05BE0088
:1009B8008001780001027800600047005001D100F2
:1009C800C080D300640047003008E1002090E100B7
:1009D8000700310061804100E0004A008002780091
:1009E80001037800050178008601780002003700CD
:1009F80003017800840178000280710033003A0016
:100A08007DFE07000001BE00803E2000010020009E
:100A1800380007000001BE007AFE07004100DE0032
:100A280000A0EC0080007800600047000A88BE0043
:100A38008100E900030035001018D0001090D200A2
:100A4800FBFF3700829FBE000200BE000E0190002F
:100A58009E0190000002EB002F0007004F01BE002E
:100A680020079800310798000200BE000E01900090
:100A78009E0190000002EB004FFF07008001780004
:100A880001027800600047005001D100C080D30007
:100A9800640047003008E1002090E10007003100C1
:100AA80061804100E0004A0080027800010378007C
:100AB80005017800860178000200370003017800FC
:100AC800840178002062A80000003700610051000E
:100AD800E0805900401188002222A90021E2A800E4
:100AE8002342A80049FE070048FE07000080FA00DC
:040AF80000000600F4
:0C0400000088230011002000000006000E
:08040C002000200000000600A2
:10041400D8002000775023000E20ED00FEFF3A00A4
:0C0424001020ED00FCFF3A000000060074
:100AFC000000FA00020AB800500088000200B8009A
:100B0C0081004200032AB800810042000080FA00F4
:040B1C0000000600CF
:100B20000000FA0002000700E405040000000000D5
:100B30000800E20002003A00100007000000060072
:100B4000811F78000200E20002003D0060001000FA
:100B5000E08018000600E20002003D006001110084
:100B6000E0811900050007004F00E00002003B0093
:100B700060001000E080180000000600020007007E
:100B80000480BE00000006006022B80006022000BB
:100B90000000D0008180D2000482D2008582D20081
:100BA0000000A8000202520083825A0003003B00AA
:100BB0000202420083824A000000A1000603E9000D
:100BC000F3FF3A00000006000080FA000000060073
:000BD00025
:1007C0000000FA00020007002E04040000000000F0
:1007D0000800E20002003A001000070000000600D6
:1007E000839F68000200E20002003D0060001000EC
:1007F000E08018000600E20002003D0060011100E8
:10080000E0811900050007004F00E00002003B00F6
:1008100060001000E0801800000006006022B800B0
:10082000060220000000D0008180D2000482D200A5
:100830008582D2000000A8000202520083825A0082
:1008400003003B000202420083824A000000A10034
:100850000603E900F3FF3A00000006000080FA00FA
:04086000000006008E
:100430000C00FA00CEB897002043200030D088008E
:10044000F0FF2F0010D08800F0FF2F00F0CF8800C1
:10045000F0FF2F0000D088003022EF0000002800BD
:1004600032A2B7006008E10030003A003062A90013
:10047000E3FF0700823E2000030020009F010700E9
:100480000007980011079800E0FF07004100DE0018
:1004900064004000800078000A01BE008100E9008D
:1004A000030035000201D0008381D200FBFF37003A
:1004B00022079800330798008C9FBE000E00900022
:1004C0009E0090000002EB00950107004007980095
:1004D000510798002E019000BE0190000E00900080
:1004E0009E0090000002EB00B50007004F06BE0022
:1004F0000007980011079800640047005001D100E0
:10050000C080D300680047003008E1002090E1007F
:10051000050031008E0090001E0190006000470031
:100520006198400060104900960037006108E100C2
:1005300030003A00B2FF0700823E20000300200096
:100540006E0107000007980011079800AFFF070031
:100550004100DE0000A0EC00800078000A01BE002F
:100560008100E900030035000201D0008381D20040
:10057000FBFF370022079800330798008C9FBE00CE
:100580000E0090009E0090000002EB006401070046
:1005900040079800510798002E019000BE0190007E
:1005A0000E0090009E0090000002EB008400070007
:1005B0004F06BE000007980011079800640047002E
:1005C0005001D100C080D300680047003008E1002E
:1005D0002090E100050031008E0090001E01900087
:1005E0006000470061984000601049003062A80038
:1005F000640037003062A90081FF0700823E2000BE
:10060000030020003D010700000798001107980033
:100610007EFF07004100DE0064004000800078009B
:100620000A01BE008100E900030035000201D0008C
:100630008381D200FBFF3700220798003307980020
:100640008C9FBE008A9FBE000E0090009E0090000E
:100650000002EB00320107004007980051079800A4
:100660002E019000BE0190000E0090009E009000B0
:100670000002EB00520007004F05BE004F06BE000F
:100680000007980011079800640047005001D1004E
:10069000C080D300680047003008E1002090E100EE
:1006A000050031008E0090001E01900060004700A0
:1006B0006198400060104900E00047003100780078
:1006C000210070002F003A004DFF0700823E2000FD
:1006D0000300200009010700000798001107980097
:1006E0004AFF07004100DE0000A0EC008000780017
:1006F0000A01BE008100E900030035000201D000BC
:100700008381D200FBFF370022079800330798004F
:100710008C9FBE000E0090009E0090000002EB0037
:10072000FF00070040079800510798002E01900035
:10073000BE0190000E0090009E0090000002EB00B1
:100740001F0007004F06BE00000798001107980021
:10075000640047005001D100C080D300680047000A
:100760003008E1002090E100050031008E0090008B
:100770001E01900060004700619840006010490031
:100780003062A8000E0090009E00900061005000B2
:10079000E0805800C01188003222A9008D00760048
:1007A000002320001088700031E2A8003342A80026
:1007B00018FF070017FF07000080FA00000006007E
:0007C00039
:100880000000FA00CEB897003EBA97002EB9970044
:100890009EB997004022EF004222EF00F0FF2F00A8
:1008A00020808800F0FF2F0020D088000B0075000A
:1008B0000C0070000D00700001007000040070005A
:1008C00082007000202420000388700040C2A9002C
:0C08D00041E2A8000080FA0000000600D1
:101324003400F8003200F8003600F800801F78001E
:10133400200020000C000900B01F780003C8A90099
:101344007101210036C2BF00804878003222A90012
:1013540040A12100104078006204E10013003A002B
:10136400C1808000A00121001008E10009003100C3
:101374006102210080012100908040007001210061
:10138400904878001100200080012100108840005E
:101394000600370041A121000020EF0080487800BA
:1013A40031A1210010C0B3008048780040A1210081
:1013B400104078006004E1000E003A0030A12100E2
:1013C400104078006004E1000A003A007001210036
:1013D40090407800A0C3B300000CE10005003A007F
:1013E40041A1210010C0B300804878000020EF0024
:1013F400C080880040A12100104078006104E10011
:101404000B003A00C08080006400E1000800310055
:10141400C101210080012100908040007001210061
:1014240090487800110020008001210010884000BD
:1014340040A12100104078006104E1000B003A0053
:10144400C08080006400E10008003A00E00121004F
:101454001080FB00D080880041A1210020C0B3008F
:10146400804878000020EF00C080880030A121006F
:10147400104078006104E1001E003A00158EAA00B5
:101484000020EF0050808800508080006600E1005A
:101494000B00310001022100A00021001081400056
:1014A40061022100A0002100108040001049780052
:1014B40011002000A000210010884000F2FF370036
:1014C400119F210010C0B30080487800048EA8004A
:1014D400070A20000E20ED00FEFF3A000000000085
:1014E40000000000048EA90031A121000020EF00BB
:1014F40080487800A00120000C0009004F107800FB
:101504004F0078003600F9003200F9003400F90089
:04151400004006008D
:101518003400F8003200F8003600F800801F780028
:10152800200020000C000900B01F78000288A900E4
:101538001100200002002000000121001098400046
:1015480010104900828080009380800000182500D8
:10155800110020000010E1000198E10004003A00A9
:101568000020EF000220EF00808088009180880032
:10157800D0A02100104078006104E10000003A008A
:10158800A00120000C0009004F1078004F007800DF
:101598003600F9003200F9003400F9000040060076
:0015A80043
:1015A8003400F8003200F8003600F800801F780098
:1015B800200020000C000900B01F78008A1F780066
:1015C8008B1F78008C1F78008D1F78000148A900B8
:1015D800019F210048C2BF0080487800109F210069
:1015E800104078006004E10010003A00009F2100DC
:1015F8009040780000CCB300000CE1000B003A00EA
:10160800C1A021000020EF008048780011A121002E
:101618000020EF00804878000020EF00408088001C
:101628002168AF00010037002168A800109F210041
:10163800104078006004E1000A003A00009F210091
:101648009040780030CCB300000CE10005003A006F
:10165800B1A0210010C0B300804878000020EF003E
:10166800B0CF8800B0A02100104078006104E100EC
:1016780012003A00009F21009040780030CCB3005F
:10168800000CE1000D003200009F2100904078001E
:1016980040CCB300000CE10008003200819F21001B
:1016A800609F210090804000009F210090487800B2
:1016B80011002000609F210010884000B0A0210088
:1016C800104078006104E10020003A00009F2100EA
:1016D8009040780040CCB300000CE1001B003A00B9
:1016E8008A9F210038FD070080808800918088004B
:1016F8008A9F21004EFD070090CF8800A1CF880067
:101708000006BE008A8080009B80800000022100C5
:10171800801F78005FFD07002F00B100B1A02100F5
:101728000020EF00804878002DC0B3006CC0B300E3
:10173800FBCFB3002AC0B30000022100801F78004D
:1017480057FE07002F00B10023C8A800109F2100F2
:10175800104078006104E1000B003A00119F21005D
:1017680020C0B300804878000020EF00B0CF880088
:1017780001022100609F2100108040001040780085
:101788000080FB0048A2B700109F2100104078009D
:101798006204E1000E003A00009F210090407800AA
:1017A80010CCB300000CE100090032000102210056
:1017B800609F210010804000104078000080FB00EE
:1017C80048A2B70011002000609F21001088400047
:1017D800109F2100104078006204E10008003A00E0
:1017E800009F21009040780010CCB300000CE1006D
:1017F80003003A00119F21000020EF008048780084
:10180800A0A02100104078006104E10010003A0017
:10181800009F21009040780000CBB300000CE1004D
:101828000B003A00A1A0210020C0B3008048780036
:101838000020EF007080880061022100E000210094
:1018480010804000104078000080FB0048A2B700DC
:10185800A0A02100104078006204E1000E003A00C8
:10186800009F21009040780010CBB300000CE100ED
:101878000900320061022100E000210010804000D0
:10188800104078000080FB0048A2B700110020003B
:10189800E000210010884000A0A02100104078003E
:1018A8006204E1000A003A00009F2100904078009D
:1018B80010CBB300000CE10005003A00A1A0210004
:1018C8000020EF0080487800F00F200048A2B70001
:1018D800CF0678004F067800CF0578004F057800CE
:1018E800A00120000C0009004F1078004F0078007C
:1018F8003600F9003200F9003400F9000040060013
:00190800DF
:100BD0000400FA00630045001080FB008000EB0079
:100BE00002E1200003002000C4FF07000007980076
:100BF00011079800640045001080FB008000EB00A6
:100C0000C203200003002000BCFF07000E0190007B
:100C10009E0190000001410081814900650045006E
:100C20001080FB008000EB00000041008180490043
:080C30000080FA00000006003C
:100C38000400FA001A80FB008000EB000271220019
:100C480003002000ABFF0700000798001107980079
:100C5800610045001080FB008000EB004206200088
:100C680003002000A3FF07000E0190009E019000E2
:100C78000001410081814900620045001080FB00AD
:100C88008000EB0000004100818049000080FA00EC
:040C98000000060052
:100C9C000E00FA004EB8970040BF9F008C9FBE001C
:100CAC008A9FBE0002E12000030020000A00BE0063
:100CBC000002EB00BFFE07004F05BE000047980086
:100CCC0002E12000030020000A00BE000002EB003D
:100CDC0090FF07005007980061079800C20320009E
:100CEC00030020000002EB00B2FE07001047980042
:100CFC005E009000EE009000C20320000300200074
:100D0C000002EB0083FF07004F06BE00204798004F
:100D1C008C9FBE0002712200030020000C00BE005C
:100D2C000002EB00A3FE07004F06BE003047980000
:100D3C0002712200030020000C00BE000002EB0038
:100D4C0074FF0700500798006107980042062000C6
:100D5C00030020000002EB0096FE070040479800BD
:100D6C005E009000EE009000420620000300200080
:100D7C000002EB0067FF070000417800CEB8970037
:100D8C003E409000804878004EB89700E10040004B
:100D9C004E409000804878004EB8970000A0EC00C0
:100DAC00024878004EB89700E30040000E409000D7
:100DBC00804878004EB89700E40040001E40900038
:100DCC00804878004EB89700E50040002E40900017
:0C0DDC00804878000080FA00000006004B
:1010A8000000FA004EB997006154E1001D003A00B3
:1010B8008A1F7800AA03200006FE07000B85FB00A4
:1010C80004FE07000C85FB0002FE07000D85FB00EF
:1010D80000FE07004F0578000220EF000C80FB009F
:1010E8000008E10007003100010041008A1F780074
:1010F8001085FB00F7FD07004F0578000220EC0083
:10110800F6FF37008A1F7800DA002000F1FD07009B
:10111800AA002000EFFD07004F0578008200780044
:1011280001003700820078006254E1001B003A0099
:101138008A1F7800AA032000C8FD07000B85FB0062
:10114800C6FD07000C85FB00C4FD07000D85FB00EC
:10115800C2FD07004F0578000420EF000C80FB005B
:101168000010E10007003100028040008A1F78006B
:101178001085FB00B9FD07004F0578000420EC003E
:10118800F6FF37008A1F7800DA002000B3FD070059
:10119800AA002000B1FD07004F0578000080FA0082
:0411A800000006003D
:1008DC000000FA002302AF0001003700FDFF3700D3
:0C08EC002A1188000080FA0000000600BD
:100864000000FA003302AF0001003700FDFF37003B
:0C087400AA1188000080FA0000000600B5
:020000040005F5
:285FD80000000000000000008B000000F80000007F000000A3000000C100000003000000000000000000000038
:00000001FF
